:020000040800F2
:1000000000000820552800084107000843070008A1
:1000100045070008470700084907000800000000DE
:100020000000000000000000000000004B07000876
:100030004D070008000000004F07000851070008A6
:10004000A5280008A5280008A5280008A52800085C
:10005000A5280008A5280008A5280008A52800084C
:10006000A5280008A5280008A5280008A52800083C
:10007000A5280008A5280008A5280008A52800082C
:10008000A5280008A5280008A5280008A52800081C
:10009000A5280008A5280008A5280008A52800080C
:1000A00059070008A5280008A5280008A528000869
:1000B000A5280008A5280008A5280008A5280008EC
:1000C000A5280008A5280008A5280008A5280008DC
:1000D000A5280008A5280008A52800086907000829
:1000E000A5280008A5280008A5280008A5280008BC
:1000F000A5280008A5280008A5280008A5280008AC
:10010000A5280008A5280008A5280008A52800089B
:10011000A5280008A5280008A5280008A52800088B
:10012000A5280008A5280008A5280008A52800087B
:10013000A5280008A5280008A5280008A52800086B
:10014000A5280008A5280008A5280008A52800085B
:10015000A5280008A5280008A5280008A52800084B
:10016000A5280008A5280008A5280008A52800083B
:10017000A5280008A5280008A52800080000000000
:10018000A5280008A5280008A5280008A52800081B
:10019000A5280008A5280008A5280008A52800080B
:1001A000A5280008A5280008A5280008A5280008FB
:1001B000A5280008A5280008A5280008A5280008EB
:1001C000A5280008A528000800000000A5280008B0
:1001D000A5280008A5280008A5280008A5280008CB
:1001E000A5280008A5280008A5280008A5280008BB
:0801F000A5280008A52800085D
:1001F80010B5054C237833B9044B13B10448AFF359
:1002080000800123237010BD0C00002000000000B6
:100218000029000808B5034B1BB103490348AFF395
:10022800008008BD00000000100000200029000820
:1002380053B94AB9002908BF00281CBF4FF0FF3145
:100248004FF0FF3000F074B9ADF1080C6DE904CE41
:1002580000F006F8DDF804E0DDE9022304B0704799
:100268002DE9F047089D04468E46002B4DD18A4261
:10027800944669D9B2FA82F252B101FA02F3C2F194
:10028800200120FA01F10CFA02FC41EA030E944025
:100298004FEA1C48210CBEFBF8F61FFA8CF708FB46
:1002A80016E341EA034306FB07F199420AD91CEB1E
:1002B800030306F1FF3080F01F81994240F21C8150
:1002C800023E63445B1AA4B2B3FBF8F008FB103398
:1002D80044EA034400FB07F7A7420AD91CEB0404CD
:1002E80000F1FF3380F00A81A74240F2078164449D
:1002F800023840EA0640E41B00261DB1D440002322
:10030800C5E900433146BDE8F0878B4209D9002D85
:1003180000F0EF800026C5E9000130463146BDE80F
:10032800F087B3FA83F6002E4AD18B4202D3824279
:1003380000F2F980841A61EB030301209E46002D28
:10034800E0D0C5E9004EDDE702B9FFDEB2FA82F27D
:10035800002A40F09280A1EB0C014FEA1C471FFADB
:100368008CFE0126200CB1FBF7F307FB131140EAC2
:1003780001410EFB03F0884208D91CEB010103F18F
:10038800FF3802D2884200F2CB804346091AA4B251
:10039800B1FBF7F007FB101144EA01440EFB00FE25
:1003A800A64508D91CEB040400F1FF3102D2A6458A
:1003B80000F2BB800846A4EB0E0440EA03409CE729
:1003C800C6F12007B34022FA07FC4CEA030C20FAD6
:1003D80007F401FA06F31C43F9404FEA1C4900FAF6
:1003E80006F3B1FBF9F8200C1FFA8CFE09FB181173
:1003F80040EA014108FB0EF0884202FA06F20BD9E6
:100408001CEB010108F1FF3A80F08880884240F235
:100418008580A8F102086144091AA4B2B1FBF9F079
:1004280009FB101144EA014100FB0EFE8E4508D974
:100438001CEB010100F1FF346CD28E456AD90238F9
:10044800614440EA0840A0FB0294A1EB0E01A142DE
:10045800C846A64656D353D05DB1B3EB080261EB4C
:100468000E0101FA07F722FA06F3F1401F43C5E926
:10047800007100263146BDE8F087C2F12003D8405C
:100488000CFA02FC21FA03F3914001434FEA1C479E
:100498001FFA8CFEB3FBF7F007FB10360B0C43EA90
:1004A800064300FB0EF69E4204FA02F408D91CEB40
:1004B800030300F1FF382FD29E422DD9023863443E
:1004C8009B1B89B2B3FBF7F607FB163341EA0341DE
:1004D80006FB0EF38B4208D91CEB010106F1FF382D
:1004E80016D28B4214D9023E6144C91A46EA004624
:1004F80038E72E46284605E70646E3E61846F8E6B6
:100508004B45A9D2B9EB020864EB0C0E0138A3E7FE
:100518004646EAE7204694E74046D1E7D0467BE7DF
:10052800023B614432E7304609E76444023842E757
:10053800704700BF30B589B0002403940494059433
:1005480006940794134B1A6B42F002021A631A6B53
:1005580002F002020192019A1A6B42F008021A6331
:100568001B6B03F008030293029B0B4D22464FF4CA
:100578008141284601F0D4FB4FF4814303930123C2
:1005880004930594069403A9284601F0CDFA09B00E
:1005980030BD00BF003802400004024072B6FEE7DA
:1005A80000B589B00023049305930693079301933C
:1005B800029303931348144A0260436083604FF622
:1005C800FF72C26003614361836100F04BFB98B91D
:1005D8004FF48053049304A90A4800F081FB68B9DA
:1005E800002301930293039301A9064800F0F8FB46
:1005F80030B909B05DF804FBFFF7D0FFFFF7CEFF75
:10060800FFF7CCFF280000200000014008B50B4888
:100618000B4B03604FF4E133436000238360C360F6
:1006280003610C2242618361C3610362436202F089
:10063800D2F800B908BDFFF7B1FF00BF7400002071
:100648000048004000B595B03422002107A802F008
:100658004BF9002302930393049305930693224ACC
:10066800116C41F080511164126C02F080520092BA
:10067800009A1E4A116841F440411160126802F460
:1006880040420192019A0222079201210A91102107
:100698000B910D920E9308230F93C0231093119280
:1006A8001292139207A800F0EFFBB0B901F09CFB7F
:1006B800A8B90F23029302230393002304934FF452
:1006C800A05305934FF4E0530693062102A800F0C7
:1006D8004FFE30B915B05DF804FBFFF75FFFFFF779
:1006E8005DFFFFF75BFF00BF00380240007000406D
:1006F80008B501F0DDFBFFF7A5FFFFF71BFFFFF7CC
:100708004FFFFFF783FF0B4C00224FF48041204638
:1007180001F006FB4FF4FA7001F0E8FB01224FF4F8
:100728008041204601F0FCFA4FF4FA7001F0DEFB3C
:10073800E9E700BF00040240FEE7FEE7FEE7FEE748
:10074800FEE770477047704708B501F0BDFB08BD6C
:1007580008B5024800F030F908BD00BF28000020A5
:1007680008B5024801F01EFC08BD00BF7400002057
:1007780082B00A4B1A6C42F080521A641A6C02F06A
:1007880080520092009A5A6C42F480425A645B6C20
:1007980003F480430193019B02B070470038024084
:1007A80002680E4B9A4200D0704700B583B003F53B
:1007B8009C335A6C42F001025A645B6C03F00103EB
:1007C8000193019B00221146182000F069F81820B7
:1007D80000F09CF803B05DF804FB00BF0000014086
:1007E80010B5ACB0044600212791289129912A918F
:1007F8002B91902203A802F077F822681C4B9A42AA
:1008080001D02CB010BD4FF48073039303A800F0FF
:100818008BFE50BB174B1A6C42F480221A641A6C78
:1008280002F480220192019A1A6B42F008021A63BC
:100838001B6B03F008030293029B4FF4407327934A
:10084800022328930024299403232A9307232B9314
:1008580027A9094801F068F922462146272000F017
:100868001FF8272000F052F8CBE7FFF797FED1E7F3
:100878000048004000380240000C02400649CB689E
:1008880023F4E0631B041B0C000200F4E060034344
:10089800024A1A43CA60704700ED00E00000FA05FA
:1008A80000B5174BDB68C3F30223C3F1070CBCF197
:1008B800040F28BF4FF0040C03F1040EBEF1060F1D
:1008C80014D9033B4FF0FF3E0EFA0CFC21EA0C0151
:1008D80099400EFA03F322EA03031943002807DBC1
:1008E8000901C9B2074B19545DF804FB0023E9E775
:1008F80000F00F000901C9B2034B1954F4E700BF17
:1009080000ED00E000E400E014ED00E0002807DB63
:1009180000F01F02400901239340024A42F82030A8
:10092800704700BF00E100E00138B0F1807F0BD2D2
:100938004FF0E0235861054AF02182F82310002087
:10094800986107221A6170470120704700ED00E0A6
:1009580010B4036A046A24F001040462846924F070
:10096800F00C4CEA021223F00A030B438261036283
:100978005DF8044B704710B4046A24F01004046254
:100988008469036A24F4704C4CEA023223F0A00311
:1009980043EA0113826103625DF8044B7047836880
:1009A80023F070030B4343F00703836070477047DD
:1009B800704770477047704710B5044603681A6956
:1009C80012F0020F11D0DA6812F0020F0DD06FF09A
:1009D80002021A610123037703689B6913F0030F6E
:1009E80079D0FFF7E6FF0023237723681A6912F00E
:1009F800040F12D0DA6812F0040F0ED06FF0040260
:100A08001A610223237723689B6913F4407F68D017
:100A18002046FFF7CEFF0023237723681A6912F0D8
:100A2800080F12D0DA6812F0080F0ED06FF0080223
:100A38001A61042323772368DB6913F0030F57D067
:100A48002046FFF7B6FF0023237723681A6912F0C0
:100A5800100F12D0DA6812F0100F0ED06FF01002DB
:100A68001A61082323772368DB6913F4407F46D093
:100A78002046FFF79EFF0023237723681A6912F0A8
:100A8800010F03D0DA6812F0010F3FD123681A6909
:100A980012F0800F03D0DA6812F0800F3DD123687E
:100AA8001A6912F4807F03D0DA6812F0800F3BD104
:100AB80023681A6912F0400F03D0DA6812F0400F69
:100AC80039D123681A6912F0200F03D0DA6812F0BE
:100AD800200F37D110BDFFF76BFF2046FFF76AFFE5
:100AE80081E72046FFF764FF2046FFF763FF92E7A0
:100AF8002046FFF75DFF2046FFF75CFFA3E720468F
:100B0800FFF756FF2046FFF755FFB4E76FF00102E5
:100B18001A612046FFF74BFFB8E76FF080021A61B1
:100B2800204600F0AEF9BAE76FF480721A612046E9
:100B380000F0A8F9BCE76FF040021A612046FFF701
:100B48003AFFBEE76FF020021A61204600F098F9DC
:100B5800C0E7000030B503683B4A904214BF4FF02D
:100B6800000E4FF0010EB0F1804F14BF72464EF0E8
:100B78000102AAB9354CA04214BF00240124344D07
:100B8800A8420DD064B904F1804404F58234A0422F
:100B980014BF0024012405F50065A84200D01CB14B
:100BA80023F070034C682343002A33D1274A90422C
:100BB80014BF00220122264CA0422BD052BB02F1C6
:100BC800804202F58232904214BF0022012204F5CD
:100BD8000064A0421ED0EAB91E4A904214BF002207
:100BE800012204F59A34A04214D09AB91A4A9042C4
:100BF80014BF0022012204F50064A0420AD04AB9B9
:100C0800164A904214BF00220122A4F59634A0424D
:100C180000D022B123F4407CCB6843EA0C0323F0D4
:100C280080034A69134303608A68C2620A68826261
:100C38000B4A904214BF73464EF001030BB10B6987
:100C480003630123436130BD0000014000080040F8
:100C5800000400400044014000180040002000400B
:100C68000004014060B310B5044690F83D3013B35A
:100C7800022384F83D30214651F8040BFFF76AFF40
:100C8800012384F8483084F83E3084F83F3084F8F3
:100C9800403084F8413084F8423084F8433084F896
:100CA800443084F8453084F8463084F8473084F876
:100CB8003D30002010BD80F83C30FFF771FDD7E7CC
:100CC8000120704710B4846824F47F4C42EA032260
:100CD8000A4342EA0C0282605DF8044B7047000048
:100CE80090F83C30012B76D010B50446012380F8EB
:100CF8003C30022380F83D3002689068374B03404F
:100D080093600B68602B4CD029D8402B54D00CD959
:100D1800502B22D1CA6849682068FFF719FE502174
:100D28002068FFF73CFE002005E0202B0DD009D9F4
:100D3800302B0AD00120012384F83D30002384F8A9
:100D48003C3010BD0BB1102B05D119462068FFF7B8
:100D580026FE0020EFE70120EDE70120EBE7B3F5E1
:100D6800805F34D0B3F5005F0CD1CB684A688968DE
:100D78002068FFF7A7FF2268936843F480439360D5
:100D88000020D8E7702B24D1CB684A68896820688E
:100D9800FFF798FF2268936843F077039360002079
:100DA800C9E7CA6849682068FFF7E5FD602120683F
:100DB800FFF7F5FD0020BEE7CA6849682068FFF71D
:100DC800C7FD40212068FFF7EAFD0020B3E70020B7
:100DD800B1E70120AFE70220704700BF8800FEFF9F
:100DE80090F83C30012B45D070B4012380F83C309A
:100DF800022380F83D3003685A689C681E4E1F4DD8
:100E0800AB4218BFB34203D122F470024D682A43A3
:100E180022F070020D682A435A600368164AB3F13B
:100E2800804F18BF934217D0A2F57C42934213D04B
:100E380002F5806293420FD002F5806293420BD094
:100E480002F57842934207D002F57052934203D0DC
:100E5800A2F59432934204D124F080048A681443A2
:100E68009C60012380F83D30002380F83C30184610
:100E780070BC704702207047000001400004014028
:100E88007047704770470000002800F0068270B570
:100E980082B00446036813F0010F29D0954B9B6874
:100EA80003F00C03042B1AD0924B9B6803F00C033D
:100EB800082B0FD06368B3F5803F40D0002B54D186
:100EC8008C4B1A6822F480321A601A6822F4802245
:100ED8001A6039E0874B5B6813F4800FEAD0854BC2
:100EE8001B6813F4003F03D06368002B00F0D78120
:100EF800236813F0020F74D07E4B9B6813F00C0F1D
:100F08005ED07C4B9B6803F00C03082B53D0E3683E
:100F1800002B00F08980774A136843F001031360BF
:100F280000F0DEFF0546734B1B6813F0020F72D109
:100F380000F0D6FF401B0228F5D90320B4E16D4A22
:100F4800136843F48033136063682BB300F0C8FF61
:100F58000546684B1B6813F4003FC9D100F0C0FF79
:100F6800401B6428F5D903209EE1B3F5A02F09D0D2
:100F7800604B1A6822F480321A601A6822F48022C0
:100F88001A60E1E75B4B1A6842F480221A601A681B
:100F980042F480321A60D7E700F0A2FF0546554BAD
:100FA8001B6813F4003FA3D000F09AFF401B64288D
:100FB800F5D9032078E14F4B5B6813F4800FA6D175
:100FC8004C4B1B6813F0020F03D0E368012B40F071
:100FD8006881484A136823F0F803216943EAC1038A
:100FE8001360236813F0080F46D0636983B3414A3E
:100FF800536F43F00103536700F072FF05463D4B02
:101008005B6F13F0020F37D100F06AFF401B022814
:10101800F5D9032048E1374A136823F0F80321691A
:1010280043EAC1031360DCE7324A136823F0010383
:10103800136000F055FF05462E4B1B6813F0020F96
:10104800CFD000F04DFF401B0228F5D903202BE13B
:10105800284A536F23F00103536700F041FF054608
:10106800244B5B6F13F0020F06D000F039FF401BD2
:101078000228F5D9032017E1236813F0040F7DD067
:101088001C4B1B6C13F0805F1ED11A4B1A6C42F07C
:1010980080521A641B6C03F080530193019B012555
:1010A800154B1B6813F4807F10D0A368012B25D043
:1010B800002B3BD10F4B1A6F22F001021A671A6FEF
:1010C80022F004021A671EE00025E9E70A4A1368BD
:1010D80043F48073136000F003FF0646064B1B6859
:1010E80013F4807FE1D100F0FBFE801B6428F5D962
:1010F8000320D9E00038024000700040724A136FA4
:1011080043F001031367A36833B300F0E9FE064612
:101118006D4B1B6F13F0020F2FD100F0E1FE801B07
:1011280041F288339842F3D90320BDE0052B09D05A
:10113800654B1A6F22F001021A671A6F22F0040237
:101148001A67E0E7604B1A6F42F004021A671A6FD9
:1011580042F001021A67D6E700F0C2FE06465A4B73
:101168001B6F13F0020F08D000F0BAFE801B41F28B
:1011780088339842F3D9032096E0FDB9A369002B80
:1011880000F09180504A926802F00C02082A59D067
:10119800022B19D04C4A136823F08073136000F0B7
:1011A8009FFE0446484B1B6813F0007F48D000F0B0
:1011B80097FE001B0228F5D9032075E0424A136CFC
:1011C80023F080531364D9E73F4A136823F08073F0
:1011D800136000F085FE05463B4B1B6813F0007F4B
:1011E80006D000F07DFE401B0228F5D903205BE005
:1011F800E369226A1343626A43EA8213A26A5208C5
:10120800013A43EA0243E26A43EA0263226B43EA91
:1012180002732D4A5360136843F08073136000F023
:101228005FFE0446284B1B6813F0007F06D100F0D0
:1012380057FE001B0228F5D9032035E0002033E0D3
:10124800002031E0204A5268012B2FD002F480039D
:10125800E1698B422CD102F03F03216A8B4229D1EC
:10126800616A47F6C0731340B3EB811F24D102F4BF
:101278004031A36A5B08013BB1EB034F1ED102F07A
:101288007063E16AB3EB016F1AD102F0E042236B9D
:10129800B2EB037F16D1002006E001207047012041
:1012A80002E0012000E0002002B070BD0120FBE751
:1012B8000120F9E70120F7E70120F5E70120F3E72E
:1012C8000120F1E70120EFE70038024008B5254B7F
:1012D8009B6803F00C03042B3FD0082B3FD1214B14
:1012E8005A6802F03F025B6813F4800F12D01D4B5E
:1012F8005968C1F388111C480023A1FB0001FEF7BF
:1013080097FF184B5B68C3F3014301335B00B0FBE5
:10131800F3F025E0134B5968C1F3881C4FEA4C11D0
:10132800B1EB0C006EEB0E0E4FEA8E1343EA90639E
:101338008101091A63EB0E03DB0043EA5173C9000C
:1013480011EB0C0C43F10003990200234FEA8C20A7
:1013580041EA9C51FEF76CFFD3E7034800E00348DD
:1013680008BD00BF0038024040787D010024F40029
:10137800002800F0A08070B50D460446524B1B684B
:1013880003F00F038B420BD24F4A136823F00F036D
:101398000B431360136803F00F038B4240F08D80FA
:1013A800236813F0020F17D013F0040F04D0474A34
:1013B800936843F4E0539360236813F0080F04D054
:1013C800424A936843F460439360404A936823F029
:1013D800F003A1680B439360236813F0010F31D029
:1013E8006368012B20D0022B25D0384A126812F0EE
:1013F800020F64D035498A6822F0030213438B60D8
:1014080000F06EFD0646314B9B6803F00C036268E2
:10141800B3EB820F16D000F063FD801B41F28833D6
:101428009842F0D9032045E0284A126812F4003F98
:10143800E0D101203EE0254A126812F0007FD9D1A0
:10144800012037E0204B1B6803F00F03AB420AD999
:101458001D4A136823F00F032B431360136803F02E
:101468000F03AB422DD1236813F0040F06D0174A9F
:10147800936823F4E053E1680B439360236813F007
:10148800080F07D0114A936823F46043216943EA9F
:10149800C1039360FFF71AFF0C4B9B68C3F3031358
:1014A8000B4AD35CD8400B4B18600B4B186800F004
:1014B800D9FC002070BD012070470120FAE7012007
:1014C800F8E70120F6E700BF003C02400038024080
:1014D800182900080800002004000020014B1868A3
:1014E800704700BF0800002008B5FFF7F7FF044B5E
:1014F8009B68C3F38223034AD35CD84008BD00BF6E
:10150800003802402829000808B5FFF7E7FF044B18
:101518009B68C3F34233034AD35CD84008BD00BF7D
:101528000038024028290008F0B583B00446066850
:1015380016F001060DD0B54B9A6822F400029A60A5
:101548009A68416B0A439A60436B002B00F06781ED
:101558000026256815F4002511D0AC4AD2F88C3045
:1015680023F44013E16B0B43C2F88C30E36BB3F503
:10157800801F00F05681002B00F05581002523685C
:1015880013F4801F0FD0A14AD2F88C3023F4400303
:10159800216C0B43C2F88C30236CB3F5800F00F03C
:1015A800448103B90125236813F0807F00D0012608
:1015B80013F0200F40F03B81236813F0100F0CD07C
:1015C800924BD3F88C2022F08072C3F88C20D3F889
:1015D8008C20A16B0A43C3F88C20236813F4804F36
:1015E80008D08A4AD2F8903023F44033616E0B4316
:1015F800C2F89030236813F4004F08D0834AD2F819
:10160800903023F44023A16E0B43C2F89030236836
:1016180013F4803F08D07D4AD2F8903023F4401369
:10162800E16E0B43C2F89030236813F4003F08D0F2
:10163800764AD2F8903023F44003216F0B43C2F866
:101648009030236813F0400F08D0704AD2F89030D9
:1016580023F00303616C0B43C2F89030236813F046
:10166800800F08D0694AD2F8903023F00C03A16C9F
:101678000B43C2F89030236813F4807F08D0634A84
:10168800D2F8903023F03003E16C0B43C2F890306D
:10169800236813F4007F08D05C4AD2F8903023F016
:1016A800C003216D0B43C2F89030236813F4806F98
:1016B80008D0564AD2F8903023F44073616D0B433A
:1016C800C2F89030236813F4006F08D04F4AD2F85C
:1016D800903023F44063A16D0B43C2F89030236827
:1016E80013F4805F08D0494AD2F8903023F440536D
:1016F800E16D0B43C2F89030236813F4005F08D003
:10170800424AD2F8903023F44043216E0B43C2F88A
:101718009030236813F4800F08D03C4AD2F89030F8
:1017280023F08063A16F0B43C2F89030236813F451
:10173800001F0DD0354AD2F8903023F00063E16FD6
:101748000B43C2F89030E36FB3F1006F00F0D5801F
:10175800236813F0080F00D0012513F4802F08D058
:101768002A4AD2F8903023F04073616F0B43C2F8D5
:101778009030236813F4000F09D0244AD2F890302F
:1017880023F08053D4F880100B43C2F890302368BC
:1017980013F0806F09D01D4AD2F8903023F000531F
:1017A800D4F884100B43C2F89030236813F0006F0C
:1017B80009D0164AD2F88C3023F00073D4F8881078
:1017C8000B43C2F88C30236813F0805F09D00F4AAE
:1017D800D2F88C3023F08063D4F88C100B43C2F815
:1017E8008C3026B9236813F0007F00F00681074A81
:1017F800136823F08063136000F072FB0646034B06
:101808001B6813F0006F7AD002E000BF0038024076
:1018180000F066FB801B6428F1D90320F0E0012664
:1018280097E60126A7E60125A9E60126B9E67F4B3A
:101838001A6C42F080521A641B6C03F080530193B7
:10184800019B7B4A136843F48073136000F048FBE4
:101858000746774B1B6813F4807F06D100F040FBE6
:10186800C01B6428F5D90320CAE0704B1B6F13F422
:10187800407315D0226B02F440729A4210D06B4B21
:101888001A6F22F44072196F41F480311967196F89
:1018980021F4803119671A671B6F13F0010F12D1F9
:1018A800236B03F44072B2F5407F1DD05F4A936802
:1018B80023F4F81393605D490B6F226BC2F30B029C
:1018C80013430B6778E600F00BFB0746574B1B6F7B
:1018D80013F0020FE4D100F003FBC01B41F2883380
:1018E8009842F3D903208BE05048826822F4F8121A
:1018F800504919400A438260DDE7012528E723683B
:1019080013F0010F13D0636B8BB9484AD2F88430B7
:10191800D2F88410606803F4403343EA801301F07E
:1019280070610B43A16843EA0173C2F884302368ED
:1019380013F4002F03D0E26BB2F5801F06D013F426
:10194800801F1ED0236CB3F5800F1AD1374AD2F806
:101958008430D2F88410606803F4403343EA80137B
:10196800E06843EA006301F0E0410B43C2F88430C9
:10197800D2F88C3023F01F03616A01390B43C2F897
:101988008C30236813F0807F11D0284AD2F8840065
:10199800D2F88410666823691B0443EA861300F0B2
:1019A8007060034301F0E0410B43C2F884302368C0
:1019B80013F0007F0DD0626823691B0443EA821389
:1019C800E26843EA0263A26843EA0273174AC2F86C
:1019D8008430164A136843F08063136000F080FA7D
:1019E8000646124B1B6813F0006F06D100F078FA18
:1019F800801B6428F5D9032002E0012D02D00020C5
:101A080003B0F0BD094A136823F08053136000F057
:101A180067FA0546054B1B6813F0005F0CD000F011
:101A28005FFA401B6428F5D90320E9E70038024033
:101A380000700040FFFCFF0F236813F4002F01D053
:101A4800E26B22B113F4801F1DD0236CDBB9354A39
:101A5800D2F88830D2F88810606903F4403343EA3A
:101A68008013A06943EA006301F0E0410B43C2F828
:101A78008830D2F88C3023F4F853A16A013943EA4C
:101A88000123C2F88C30236813F4001F03D0E36FDE
:101A9800B3F1006F31D0236813F0080F19D0214A31
:101AA800D2F88810D2F88830606903F4403343EAEA
:101AB800801301F070610B43E16943EA0173C2F8D6
:101AC8008830D2F88C3023F44033E16A0B43C2F8F3
:101AD8008C30144A136843F08053136000F000FA06
:101AE8000446104B1B6813F0005F19D100F0F8F999
:101AF800001B6428F5D9032082E70A4AD2F8880037
:101B0800D2F888106569236A1B0443EA851300F03C
:101B18007060034301F0E0410B43C2F88830BAE734
:101B280000206DE70038024000230F2B00F2EF8001
:101B380070B582B061E085685E000324B44025EA90
:101B48000405CC68B4402C438460456825EA020546
:101B58004C68C4F300129A402A4342605BE0DC08F8
:101B6800083450F8246003F0070295000F22AA40B9
:101B780026EA020E0A69AA4042EA0E0240F8242028
:101B88005DE0092200E0002202FA0EF22A43023444
:101B98005F4D45F824205F4A94686FEA0C0224EAF6
:101BA8000C054E6816F4801F01D04CEA0405594C08
:101BB800A560E46802EA04054E6816F4001F01D027
:101BC8004CEA0405534CE560646802EA04054E6873
:101BD80016F4003F01D04CEA04054E4C65602468B9
:101BE80022404D6815F4803F01D04CEA0402494C6C
:101BF800226001330F2B00F2888001229A400C6882
:101C080004EA020C32EA0404F3D14C6804F0030439
:101C1800013C012C8FD94A6802F00302032A09D03B
:101C2800C4685D000322AA4024EA02048A68AA4024
:101C38002243C2604A6802F00302022A8FD0046875
:101C48004FEA430E032202FA0EF224EA02044A681B
:101C580002F0030202FA0EF2224302604A6812F40A
:101C6800403FC6D02C4A546C44F480445464526CAF
:101C780002F480420192019A9C08A51C244A52F859
:101C8800255003F003024FEA820E0F2202FA0EF2E9
:101C980025EA0205214A90423FF475AF02F58062B9
:101CA800904222D002F58062904220D002F58062F4
:101CB80090421ED002F5806290421CD002F58062EC
:101CC80090421AD002F58062904218D002F58062E4
:101CD800904216D002F58062904214D002F58062DC
:101CE80090423FF44EAF0A224EE701224CE702220F
:101CF8004AE7032248E7042246E7052244E706228A
:101D080042E7072240E708223EE702B070BD70476D
:101D180000380140003C0140003802400000024009
:101D28000AB18161704709048161704770B5044642
:101D3800866D00F0D5F894F83530DBB2022B06D06A
:101D480080236365002384F83430012070BD054684
:101D58002268136823F0160313602268536923F07E
:101D680080035361236CE3B12268136823F00803EE
:101D780013602268136823F00103136023681B684B
:101D880013F0010F11D000F0ABF8431B052BF5D968
:101D980020236365032084F83500002384F8343059
:101DA800D4E7A36C002BDFD1E3E7E26D3F23934038
:101DB800B360012384F83530002084F83400C5E787
:101DC80090F83530DBB2022B03D080234365012025
:101DD8007047052380F835300268136823F0010343
:101DE800136000207047000010B582B01B4B1A6CBE
:101DF80042F080521A641B6C03F080530193019BDC
:101E0800174A136843F48033136000F069F80446F6
:101E1800134B5B6813F4803F08D100F061F8001B96
:101E2800B0F57A7FF4D9032002B010BD0C4A1368CC
:101E380043F40033136000F053F80446084B5B6822
:101E480013F4003F07D100F04BF8001BB0F57A7F80
:101E5800F4D90320E8E70020E6E700BF0038024095
:101E68000070004010B504460E4B18784FF47A7392
:101E7800B3FBF0F30C4A1068B0FBF3F0FEF754FD27
:101E880068B90F2C01D901200AE0002221464FF041
:101E9800FF30FEF705FD054B1C60002000E0012027
:101EA80010BD00BF00000020080000200400002032
:101EB80008B50320FEF7E2FC0F20FFF7D3FFFEF77B
:101EC80057FC002008BD0000034A1168034B1B782B
:101ED8000B441360704700BFFC0000200000002086
:101EE800014B1868704700BFFC00002038B5044655
:101EF800FFF7F6FF0546B4F1FF3F02D0044B1B780D
:101F08001C44FFF7EDFF401BA042FAD338BD00BFC9
:101F180000000020026852E8003F23F4907342E872
:101F280000310029F6D1026802F1080353E8003FA6
:101F380023F00103083242E800310029F3D1036E8F
:101F4800012B06D02023C0F8803000230366836667
:101F58007047026852E8003F23F0100342E800315E
:101F68000029F6D1EEE7704708B5026852E8003F4D
:101F780023F0400342E800310029F6D12023C3674B
:101F88000023C366FFF7EFFF08BD704708B5806BF5
:101F98000023A0F85A30A0F85230FFF7F6FF08BD2A
:101FA8007047704770B504460168CB6908688D684A
:101FB80040F60F021A4005D113F0200F02D010F09E
:101FC800200F20D12AB115F0010222D1AE4E3042A5
:101FD8001FD1226E012A00F0AB8013F4801F03D0BA
:101FE80015F4800F40F03E8113F0800F03D010F0FD
:101FF800800F40F03E8113F0400F03D010F0400FE7
:1020080040F03E8170BDA36E002BFBD02046984760
:10201800F8E713F0010F09D010F4807F06D00125EE
:102028000D62D4F884102943C4F8841013F0020F09
:1020380009D042B1216802250D62D4F8841041F01C
:102048000401C4F8841013F0040F09D042B12168C8
:1020580004250D62D4F8841041F00201C4F88410FC
:1020680013F0080F0BD010F0200F00D13AB12268FE
:1020780008211162D4F884200A43C4F8842013F498
:10208800006F0CD010F0806F09D022684FF4006107
:102098001162D4F8842042F02002C4F88420D4F8D5
:1020A8008420002AAED013F0200F06D010F0200FA5
:1020B80003D0A36E0BB120469847D4F88420236838
:1020C8009B6813F0400F02D112F0280F29D0204648
:1020D800FFF720FF23689B6813F0400F1DD022688C
:1020E80002F1080353E8003F23F04003083242E8B6
:1020F80000310029F3D1636F5BB1644A1A65606FE0
:10210800FFF75EFE00283FF47DAF606F036D9847D0
:1021180078E72046FFF739FF74E72046FFF735FFD9
:1021280070E72046FFF731FF0023C4F8843069E7E1
:1021380013F0100F3FF451AF10F0100F3FF44DAFF4
:1021480010230B6223689B6813F0400F50D0626F16
:1021580013685B689BB2002B3FF454AFB4F8581077
:1021680099427FF64FAFA4F85A30D369B3F5807F10
:1021780031D0226852E8003F23F4807342E80031EE
:102188000029F6D1226802F1080353E8003F23F042
:102198000103083242E800310029F3D1226802F134
:1021A800080353E8003F23F04003083242E80031B7
:1021B8000029F3D12023C4F8803000232366226845
:1021C80052E8003F23F0100342E800310029F6D11D
:1021D800606FFFF7ABFD02236366B4F85810B4F8DC
:1021E8005A309BB2C91A89B22046FFF7D9FE09E7CF
:1021F800B4F85810B4F85A309BB2C91A89B2B4F876
:102208005A309BB2002B3FF4FDAE00293FF4FAAEE2
:10221800226852E8003F23F4907342E80030002817
:10222800F6D1226802F1080353E8003F23F00103C6
:10223800083242E800300028F3D12023C4F8803067
:1022480000232366A366226852E8003F23F01003A8
:1022580042E800300028F6D1022363662046FFF7E3
:102268009FFECFE64FF480130B622046FFF799FEDE
:10227800C8E6E36E002B3FF4C5AE20469847C1E69A
:102288002046FFF771FEBDE620010004951F0008F7
:1022980010B5044683680269134342691343C2694F
:1022A800134301680868934A024013430B6022688D
:1022B800536823F44053E1680B435360A269236ACF
:1022C8001A4321688B6823F4306313438B602368B7
:1022D800894A934219D0894A934229D0884A93421D
:1022E8003ED0884A934262D0874A934271D0874A47
:1022F800934200F08380864A934200F09480854A96
:10230800934200F0A58010233AE0834BD3F8903035
:1023180003F00303032B09D8DFE803F00204AE0639
:1023280001232DE004232BE0082329E0102327E0D4
:10233800794BD3F8903003F00C030C2B0ED8DFE860
:1023480003F0070D0D0D090D0D0D9D0D0D0D0B0065
:10235800002315E0042313E0082311E010230FE005
:102368006D4BD3F8903003F03003202B00F08880B9
:1023780019D8002B00F08680102B40F085800423AC
:10238800E069B0F5004F00F0AB80082B00F20C813B
:10239800DFE813F0E800FB00E6000A01FE000A018E
:1023A8000A010A010101302B70D10823E8E75A4BD2
:1023B800D3F8903003F0C003802B69D005D8002BE8
:1023C80068D0402B68D10423DAE7C02B66D10823F4
:1023D800D6E7514BD3F8903003F44073B3F5007F40
:1023E8005ED006D8002B5DD0B3F5807F5CD1042386
:1023F800C6E7B3F5407F59D10823C1E7464BD3F868
:10240800903003F44063B3F5006F51D006D8002B29
:1024180050D0B3F5806F4FD10423B1E7B3F5406FC7
:102428004CD10823ACE73C4BD3F8903003F440532D
:10243800B3F5005F44D006D8002B43D0B3F5805FD6
:1024480042D104239CE7B3F5405F3FD1082397E7C7
:10245800314BD3F8903003F44043B3F5004F37D0F5
:1024680005D8BBB3B3F5804F36D1042388E7B3F55D
:10247800404F33D1082383E7022381E702237FE714
:1024880002237DE700237BE7102379E7102377E712
:10249800022375E7002373E7102371E710236FE722
:1024A80002236DE700236BE7102369E7102367E732
:1024B800022365E7012363E7102361E710235FE741
:1024C80002235DE700235BE7102359E7102357E752
:1024D800022355E7002353E7102351E710234FE762
:1024E800082B5BD8DFE803F01A343A5A375A5A5A9D
:1024F8001E0000BFF369FFEF0010014000440040D8
:1025080000480040004C00400050004000140140CA
:1025180000780040007C004000380240FEF7E4FFED
:1025280000283DD06268530803EB4000B0FBF2F08E
:10253800A0F110024FF6EF739A4233D883B223F01A
:102548000F03C0F3420018432368D860002030E02E
:10255800FEF7DAFFE4E7FEF7B9FEE1E71748E1E73F
:10256800164802E0FEF7C0FF00B3636800EB5300B3
:10257800B0FBF3F0A0F110024FF6EF739A4217D8B0
:10258800236880B2D860002013E0FEF7BDFFEBE7B8
:10259800FEF79CFEE8E74FF40040E6E7012008E07C
:1025A800002006E0012004E0012002E0002000E015
:1025B80001200023A366E36610BD00BF0024F400D9
:1025C800436A13F0010F06D00268536823F40033FE
:1025D800816A0B435360436A13F0020F06D0026806
:1025E800536823F48033C16A0B435360436A13F082
:1025F800040F06D00268536823F48023016B0B4351
:102608005360436A13F0080F06D00268536823F436
:102618000043416B0B435360436A13F0100F06D01D
:102628000268936823F48053816B0B439360436A79
:1026380013F0200F06D00268936823F40053C16B8F
:102648000B439360436A13F0400F0AD00268536843
:1026580023F48013016C0B435360036CB3F5801FA4
:102668000BD0436A13F0800F06D00268536823F436
:102678000023816C0B43536070470268536823F44E
:10268800C003416C0B435360EBE72DE9F843054663
:102698000F4616469946DDF820802C68E46937EA2B
:1026A80004030CBF4FF0010C4FF0000CB44555D19A
:1026B800B8F1FF3FF1D0FFF713FCA0EB090040454C
:1026C8002ED8B8F1000F2BD02B681A6812F0040F1F
:1026D800E3D0DA6912F4006FDFD04FF400621A62B7
:1026E8002A6852E8003F23F4D07342E800310029F9
:1026F800F6D12A6802F1080353E8003F23F00103EA
:10270800083242E800310029F3D12023EB67C5F8ED
:102718008030C5F88430002385F8783003201EE027
:102728002A6852E8003F23F4D07342E800310029B8
:10273800F6D12A6802F1080353E8003F23F00103A9
:10274800083242E800310029F3D12023EB67C5F8AD
:102758008030002385F87830032000E00020BDE8B1
:10276800F88330B583B004460023C0F88430FFF7FF
:10277800B7FB05462268126812F0080F0FD12368CC
:102788001B6813F0040F18D12023E367C4F88030C6
:1027980000202066606684F8780003B030BD6FF0D2
:1027A8007E430093034600224FF400112046FFF7B2
:1027B8006CFF0028E3D00320EFE76FF07E4300931F
:1027C8002B4600224FF480012046FFF75EFF0028C9
:1027D800DAD00320E1E768B310B50446C36F03B34A
:1027E8002423E3672268136823F00103136020465B
:1027F800FFF74EFD012813D0636ABBB922685368FE
:1028080023F4904353602268936823F02A0393606B
:102818002268136843F0010313602046FFF7A1FF05
:1028280010BD80F87830FDF7DBFFD9E72046FFF7C9
:10283800C7FEE3E701207047034AD2F8883043F423
:102848007003C2F88830704700ED00E0DFF834D03C
:102858000D480E490E4A002302E0D458C4500433F0
:10286800C4188C42F9D30B4A0B4C002301E01360C7
:102878000432A242FBD3FFF7DFFF00F011F8FDF7A7
:1028880037FF704700000820000000200C000020DF
:10289800402900080C00002000010020FEE700008D
:1028A80070B50D4D0D4C641BA4100026A64209D12D
:1028B8000B4D0C4C00F020F8641BA4100026A64217
:1028C80005D170BD55F8043B98470136EEE755F839
:1028D800043B98470136F2E73829000838290008F0
:1028E800382900083C29000802440346934200D1D5
:1028F800704703F8011BF9E7F8B500BFF8BC08BC3E
:102908009E467047F8B500BFF8BC08BC9E467047A5
:102918000000000000000000010203040607080987
:0829280000000000010203049D
:0829300038D9FF7F010000000F
:042938001D02000874
:04293C00F901000895
:0C29400001000000100000000024F40062
:040000050800285572
:00000001FF
